:020000040800F2
:10000000F81600209D010008ED370008DB300008DD
:10001000E9370008610F00081D41000800000000DA
:1000200000000000000000000000000005010008C2
:100030001510000800000000490100085D380008A4
:10004000B7010008B7010008B7010008B7010008B0
:10005000B7010008B7010008B7010008B7010008A0
:10006000B7010008B7010008B7010008B701000890
:10007000C90F0008D90F0008B7010008B701000830
:10008000B7010008B7010008B7010008B701000870
:10009000B7010008B7010008B701000817100008F1
:1000A000B7010008F9380008B7010008B7010008D7
:1000B000B701000809390008B7010008B7010008B6
:1000C000B7010008B7010008B7010008B701000830
:1000D000B7010008B7010008B7010008394000085F
:1000E000B7010008B7010008B7010008DFF810D019
:1000F00000F032FD00480047596B0008AFF3008064
:10010000F8160020224B19680868B0E8F00F80F359
:100110000988BFF36F8F4FF0000080F311884EF015
:100120000D0E70470000000006480068006880F36C
:10013000088862B661B6BFF34F8FBFF36F8F00DFE1
:1001400000BF00BF08ED00E0EFF30980BFF36F8F41
:100150000F4B1A6820E9F00F106008B54FF05000FF
:1001600080F31188BFF34F8FBFF36F8F08F03CFC13
:100170004FF0000080F31188BDE808401968086856
:10018000B0E8F00F80F30988BFF36F8F704700BFAE
:1001900024000020EFF305807047000006488047E8
:1001A00006480047FEE7FEE7FEE7FEE7FEE7FEE75C
:1001B000FEE7FEE7FEE7FEE7F7380008ED0000087F
:1001C0002DE9F0410024061B254671F1000605DAF1
:1001D00001240027D0EB070067EB0101161E73F125
:1001E000000605DA0027D2EB0702012567EB0303BF
:1001F00000F084FB86460E4617469C46AC4204D06F
:100200000025D0EB050E65EB010624B10020D2EBF2
:10021000000760EB030C704631463A466346BDE882
:10022000F081202A04DB203A21FA02F000217047F5
:1002300021FA02F3D040C2F120029140084319464E
:10024000704740EA01039B0703D009E008C9121F69
:1002500008C0042AFAD203E011F8013B00F8013B80
:10026000521EF9D27047D2B201E000F8012B491EAC
:10027000FBD270470022F6E710B513460A46044643
:100280001946FFF7F0FF204610BD30B504460020A8
:10029000034600E05B1C934203D2E05CCD5C401B54
:1002A000F8D030BDF0B480EA0102D40F4200B2EBC6
:1002B000410F02D20246084611464A0042D0C30D01
:1002C000DDB2C1F3C752AD1A202D35DAC1F31601E4
:1002D00041F4000204B15242C5F1200602FA06F1CF
:1002E0002A411044B3EBD05F23D0C4B1012DA0EB61
:1002F000C35009DCF0BC4FF0004202EAC352DBB24B
:1003000000F5000000F055BB400000F1807000EBEC
:10031000C350A0F1807040EAD170490009E049085B
:1003200041EAC071A0EBC35000F50000400800EBAB
:10033000C350F0BC00F034BB6142012202EB41012A
:10034000001BF6E7F0BC704781F00041AAE780F09F
:100350000040A7E780EA010210B502F00043400028
:1003600022D04A001FD0010E01EB1261C0F35600EB
:10037000C2F3560240F4000042F40002A0FB022047
:1003800000047F39140400D0401C50EA124001D40C
:100390004000491EC2B20C0604EBD010401C4008BD
:1003A000802A02D003E0002010BD20F001000029C7
:1003B00000DA0020184310BD30B480EA010202F0D8
:1003C000004530F0004221F0004013D090B1C30D41
:1003D000D40DC2F31601C0F31600E41A41F4000173
:1003E00040F400027D34914201D3641C00E04900D6
:1003F000002C02DA30BC002070474FF400000023CC
:10040000914201D3891A034340084FEA4101F7D1D1
:1004100051B1914202D14FF0004105E002D24FF0BC
:10042000010101E06FF0010103EBC450284430BC2E
:1004300000F0B6BA2DE9FE4F804681EA0300C00FF6
:100440000C46009021F0004123F00045B8EB02007B
:10045000A94105D24046214690461C460B4602461D
:1004600023F00040104347D0270DC7F30A00C3F321
:100470000A510290401A019040286BDAC3F313002E
:1004800040F4801B0098924620B10023D2EB030A6F
:1004900063EB0B0B01985946C0F14002504600F047
:1004A0005EFA06460D4650465946019A00F066FA35
:1004B00010EB08006141002487EA115284EAE773D7
:1004C0001A4340D0009A62B3019A012A4FEA0752B8
:1004D00015DC001B61EB02014FF0004202EA0752FB
:1004E000CDE90042001C41F5801132462B4600F058
:1004F0009DFA03B0BDE8F08F40462146F9E7001BA6
:1005000061EB0201001C41F5801300185B412018CB
:10051000A2F5001747EB030140EAD570B6196D410B
:1005200011E06D084FEA360645EAC0754FEA0752FA
:10053000001B61EB0201001C41F5801149084FEAE4
:1005400030000019514132462B4603B0BDE8F04F50
:1005500000F05DBA0098012240000023D0EB0202B7
:1005600063EBE073009821464FEAE074B8EB0000BB
:1005700061EB0401E9E783F000435BE781F00041B0
:1005800058E72DE9FE4F81EA030404F0004421F00E
:10059000004100944FF0000B23F0004350EA0104A7
:1005A0005ED052EA03045BD0C3F30A54C1F30A5588
:1005B0002C44A4F2F3340194A0FB0254C1F31301C0
:1005C00041F48011C3F3130343F4801301FB02448D
:1005D00000FB034E840A970A44EA815447EA835792
:1005E000A4FB076802958D0A05FB07854FEA932C4B
:1005F00004FB0C542705029D4FEA065847EA1637BC
:10060000B5EB08056EEB070C870E920E47EA8117D3
:1006100042EA8312A7FB0201B6EB0B0164EB000474
:100620002B0D43EA0C335E1844EB1C50DA4651465E
:10063000E7FB0201C5F313044FEA0B3343EA1453FB
:100640004FEA0432019C43EA0603A4F10C0402942D
:10065000009CCDE900B400F0E9F903B0BDE8F08FEB
:1006600000200146F9E72DE9F04D81EA030404F08A
:10067000004B21F0004514464FF0000A23F00041E2
:1006800050EA050220D054EA01021DD0C5F30A57F2
:100690000246C5F31303C1F31300C1F30A5640F435
:1006A000801543F48013A7EB0608101BD64608F20A
:1006B000FD3873EB050002D308F1010801E0921840
:1006C0005B41B8F1000F03DA00200146BDE8F08D70
:1006D00000204FF48011064684460EE0171B73EB92
:1006E000050705D3121B63EB050306434CEA010C17
:1006F00049084FEA300092185B4150EA0107EDD1FA
:1007000052EA030012D082EA040083EA050108439A
:1007100005D0101BAB4106D20122002306E00022C7
:100720004FF0004302E06FF0010253101AEB060095
:100730004CEB085110EB0A0041EB0B01BDE8F04D0A
:1007400000F065B9C10F80EAE0700844CA0796233B
:10075000002100F02EB996230022114600F029B99D
:100760000EB5C10F80EAE0700844CA07002140F2CC
:1007700033438DE80E000A460B4600F057F903B0EC
:1007800000BD00F0004220F00040C10DC0F3160093
:1007900040F400007F2901DA00207047962903DC2D
:1007A000C1F19601C84001E096398840002AF4D092
:1007B0004042704720F00040C10DC0F3160040F4E5
:1007C00000007F2901DA00207047962903DCC1F17F
:1007D0009601C840704796398840704770B5C1F39C
:1007E0000A5201F000450024C1F3130140F2FF3327
:1007F00041F480119A4201DA002070BD40F2334387
:100800009A42A2F2334203DC5242FFF70AFD00E0B3
:1008100090402C43F1D0404270BD00F0004230F0D7
:1008200000400AD0C10D01F56071C0F3160042EA24
:100830000151C2084007114370470020014670472C
:1008400030B5041E71F1000404DB4FF00044404257
:1008500064EB0101141E73F1000405DB1C464FF02C
:100860000043524263EB0403994208BF904230BDFB
:1008700001F0004330B421F0004150EA010206D0FB
:100880000A0DA2F56072C1F31301002A02DC30BC2C
:1008900000207047440F44EAC104C100E01830BC96
:1008A00000EBC25000F07CB8002801DBC0F1004032
:1008B000002901DBC1F1004181427047002801DBC2
:1008C000C0F10040002901DBC1F1004188427047BE
:1008D00030B50B46014600202022012409E021FA10
:1008E00002F59D4205D303FA02F5491B04FA02F50D
:1008F0002844151EA2F10102F1DC30BD2DE9F05FA4
:100900000546002092469B4688460646814640247E
:100910001BE02846414647462246FFF782FC5346E5
:100920005A46C01A914110D311461846224600F08B
:1009300016F82D1A67EB01084F46224601200021C8
:1009400000F00DF817EB00094E41201EA4F1010440
:10095000DFDC484631462A464346BDE8F09F202A60
:1009600004DB203A00FA02F1002070479140C2F106
:10097000200320FA03F3194390407047202A06DB36
:10098000CB17203A41FA02F043EAE07306E041FA5D
:1009900002F3D040C2F1200291400843194670474B
:1009A0000029A8BF7047401C490008BF20F0010083
:1009B000704710B4B0FA80FC00FA0CF050EA010461
:1009C00004BF10BC704749B1CCF1200421FA04F4F3
:1009D00011FA0CF118BF012121430843A3EB0C01CC
:1009E000CB1D4FEA00614FEA102042BF002010BC2F
:1009F000704700EBC35010440029A4BF10BC7047DF
:100A0000401C490008BF20F0010010BC704710B521
:100A1000141E73F1000408DA401C41F10001921821
:100A20005B411A4301D120F0010010BD2DE9F04DCA
:100A300092469B4611B1B1FA81F202E0B0FA80F21F
:100A400020329046FFF78BFF04460F4640EA0A002B
:100A500041EA0B0153465A46084313D0114653EA64
:100A6000010019D0C8F140025046FFF7DAFB0546F5
:100A70000E46504659464246FFF771FF084305D0DF
:100A8000012004E020463946BDE8F08D00200543F2
:100A900046EAE0762C4337430A986305E40AA0EB64
:100AA00008000022FD0A44EA47540A3002D500201B
:100AB0000146E9E7010510196941DDE9084500191A
:100AC0006941BDE8F04DA2E770B521F00043034352
:100AD0000CD0C1F30A550024D5EB040564EB0403E4
:100AE000D617AD1AB34102DB0020014670BD2018B5
:100AF00041EB025170BDC1F30A52C1F3130140F240
:100B0000FF3341F480119A4202DA00200146704717
:100B100040F233439A42A2F2334202DC5242FFF7E0
:100B200080BBFFF71CBF000030B5041E71F100044C
:100B300004DB4FF00044404264EB0101141E73F1EA
:100B4000000405DB1C464FF00043524263EB0403F4
:100B50008B4208BF824230BD064C074D06E0E0687C
:100B600040F0010394E8070098471034AC42F6D3F4
:100B7000FFF7C0FA4C9E00086C9E00082DE9F04D6E
:100B800000231A461B1A8A4103DB00200146BDE8F8
:100B9000F08DC1F30A52C1F3130141F480154FF0F7
:100BA000000BD10702D100186D41521E00270446E8
:100BB00040F2FF11384601EB620A3E46804602468B
:100BC00000204FF48011FFF72CFBC2197141BB18B4
:100BD00046EB0100B4EB030C75EB000C04D3E41AF4
:100BE00065EB000517460E46241908F101006D411A
:100BF00080463428E3DDF91946EB0600091BA841BD
:100C000003D24FF0FF32134601E0002213461BEBE4
:100C1000070046EB0A51BDE8F04DFFF7F8BE0EB5F0
:100C200040F2334102910021CDE900110A460B4602
:100C3000FFF7FCFE03B000BD2DE9F04790B08246FF
:100C4000BAF1000F02D110B0BDE8F08726A003F082
:100C500093FA2C49DAF800000860DAF80800886096
:100C6000DAF80C00C860DAF810000861DAF8180049
:100C70008861DAF820000862086AFFF7CEFD0446B2
:100C80000D4620498869FFF7C8FD06460F461D49F5
:100C90000869FFF7C2FD804689461A49C868FFF710
:100CA000BCFDCDE90E0117498868FFF7B6FDCDE917
:100CB0000C0114490868FFF7B0FDCDE90489CDE9BE
:100CC0000667CDE90845CDE90A01DDE90E01CDE968
:100CD0000201DDE90C01CDE900010BA0DDE90A23E9
:100CE00003F04AFA00BFAEE74170706C7950494496
:100CF000506172616D657465727320576F726B20FD
:100D00000A000000880000206E6577207061726123
:100D10006D65746572206170706C6965643A202538
:100D2000662C2025662C2025662C2025662C202567
:100D3000662C202566200A002DE9F04790B08246F7
:100D400053A003F019FA9AF800205948817859A065
:100D500003F012FA9AF819205548C17860A003F000
:100D60000BFA6AA003F008FA002405E01AF8041050
:100D70006AA003F001FA641C1A2CF7DB57A003F0F9
:100D8000FBF9012405E00AEB0400042107F0D4FB81
:100D9000241D192CF7DB002000E0401C1A28FCDB86
:100DA000002405E01AF804105CA003F0E5F9641CC7
:100DB0001A2CF7DB9AF800003D498978884202D066
:100DC00010B0BDE8F0879AF819003949C97888420F
:100DD00000D0F5E7012405E00AEB0400042107F048
:100DE000ABFB241D192CF7DB002000E0401C1A2867
:100DF000FCDB2F48DAF801104160DAF80510816059
:100E0000DAF80910C160DAF80D100161DAF8111092
:100E10004161DAF81510816101468869FFF7FDFC30
:100E200004460D4622494869FFF7F7FC06460F467F
:100E30001F490869FFF7F1FC804689461C49C868CC
:100E4000FFF7EBFCCDE90E0119498868FFF7E5FCD7
:100E5000CDE90C0116494868FFF7DFFCCDE90489AC
:100E6000CDE90667CDE90845CDE90A01DDE90E01C6
:100E7000CDE90201DDE90C01CDE9000129A0DDE9A0
:100E80000A2303F079F903F01BF900BF98E700008B
:100E90006461746120696E2C204254446174615F06
:100EA00050726F6365737320776F726B73200A00E3
:100EB000AC1200204672616D6520486561643A207D
:100EC0004578706563746564203D2025782C205238
:100ED00065636569766564203D2025780A00000019
:100EE0004672616D65205461696C3A204578706581
:100EF00063746564203D2025782C20526563656904
:100F0000766564203D2025780A00000052784275FD
:100F100066666572204845583A200A0025303258E6
:100F2000200000004254446174615F50726F636539
:100F30007373206461746120616E616C797369738D
:100F40003A200A2025662C2025662C2025662C2098
:100F500025662C2025662C202566200A000000002E
:100F600000BFFEE710B5034A111F081F05F088FEF9
:100F700010BD0000A81200202DE9FF470D49486967
:100F8000FFF74BFC04460D460A490869FFF745FC8C
:100F900006460F460749C868FFF73FFC80464246B1
:100FA0000B4605A0CDE90067CDE9024503F0E4F862
:100FB000BDE8FF87941200206D70753A25662C25D8
:100FC000662C25660A00000010B5024800F0BAF849
:100FD00010BD00001805002010B5024800F0B2F85E
:100FE00010BD0000D404002030B590F8405001241A
:100FF000AC40C56B6C60046863604468102C04D11D
:101000000468A2600468E16003E00468A160046809
:10101000E26030BD704710B54FF4807000F098FA70
:1010200010BD72B600BFFEE710B500F03DFC10BD6C
:101030000149086870470000242C01400146002245
:1010400091F82100022808D00420886300BF002006
:1010500081F8200000BF012070470868006820F078
:101060000E000B6818600868006820F001000B682B
:10107000186091F8403001209840CB6B58600120F7
:1010800081F8210000BF002081F8200000BF104639
:10109000E2E7000070B50446002594F8210002281C
:1010A00003D00420A063012548E02068006820F0F8
:1010B0000E00216808602068006820F001002168A7
:1010C00008601F492068884201D1012026E01C49A0
:1010D00014312068884201D110201FE018492831BE
:1010E0002068884201D1801518E015493C312068FC
:1010F000884201D1801411E01149503120688842A2
:1011000002D14FF4803009E00D49643120688842F3
:1011100002D14FF4801001E04FF080700849083987
:101120004860012084F8210000BF002084F82000DE
:1011300000BF606B10B12046616B8847284670BDC8
:101140000800024070B50446E06B05682068066838
:1011500094F84010042088402840002846D006F02B
:101160000400002842D02068006800F0200028B960
:101170002068006820F00400216808605749206852
:10118000884201D1042027E0544914312068884264
:1011900001D1402020E0514928312068884201D106
:1011A000001519E04D493C312068884202D14FF4C6
:1011B000804011E0494950312068884202D14FF403
:1011C000802009E0454964312068884202D14FF40B
:1011D000800001E04FF08060404908394860E06AD3
:1011E00000287AD02046E16A884776E094F84010DB
:1011F000022088402840A0B306F0020088B320688F
:10120000006800F0200040B92068006820F00A0063
:1012100021680860012084F8210030492068884254
:1012200001D1022028E02D4914312068884201D1E3
:10123000202021E0294928312068884201D1401529
:101240001AE026493C312068884202D14FF4005010
:1012500012E0224950312068884203D14FF4003017
:101260000AE017E01D4964312068884202D14FF43A
:10127000001001E04FF0007018490839486000BFC5
:10128000002084F8200000BFA06A30B32046A16A85
:10129000884722E094F84010082088402840E0B1B8
:1012A00006F00800C8B12068006820F00E00216830
:1012B000086094F8401001208840E16B48600120EC
:1012C000A06384F8210000BF002084F8200000BF44
:1012D000206B10B12046216B884770BD080002408A
:1012E0000146002209B901207047164B0868C01A50
:1012F0001423B0FBF3F08000086412480838C86378
:10130000022081F821000868026843F6F0708243E9
:10131000D1E901031843CB6818430B6918434B69A3
:1013200018438B691843CB6918430243086802606D
:1013300000208863012081F82100002081F820002E
:1013400000BFD1E7080002402DE9F04104460D46F8
:1013500016461F464FF0000800BF94F820000128F1
:1013600002D10220BDE8F081012084F8200000BFF6
:1013700094F8210001282CD1022084F821000020BB
:10138000A0632068006820F00100216808603B46E7
:10139000324629462046FFF727FEE06A30B1206832
:1013A000006840F00E00216808600BE020680068CB
:1013B00020F00400216808602068006840F00A00FE
:1013C000216808602068006840F00100216808601A
:1013D00006E000BF002084F8200000BF4FF00208A4
:1013E0004046BFE770B5044600F05EFA0646254663
:1013F000681C10B104480078054400BF00F054FA9E
:10140000801BA842FAD370BD1C0000202DE9F047D4
:101410008CB08246BAF5807F7BD14FF480713E4814
:1014200000F034FA01280DD1FFF7FEFD3B4948805A
:10143000FFF7FEFD3949088039480078401C3849DB
:10144000087066E04FF48071334800F01FFA0028FE
:101450005FD1FFF7E9FD3149C880FFF7E9FD2F496A
:1014600088800846C0884988401A00EB4001C1EBDB
:10147000C0102A49898801EBC00028490988401A10
:101480002849086028480068FFF7C7F90446274A3A
:10149000274BFFF776F8CDE908012649C868FFF722
:1014A000BCF921F000418046234A244BFFF769F83C
:1014B00006460022224BFFF7D6F8044604F084F9D2
:1014C000CDE9020117480068FFF745F90646FFF726
:1014D000A4F904461B4A1C4BFFF753F8CDE9000161
:1014E000DDE90223FFF74DF8104A184BCDE904015E
:1014F000FFF747F8CDE90601DDE90823FEF79AFF7B
:10150000CDE90A01FFF7B4F9074908600020044952
:1015100008700CB0BDE8F08700080140C000002052
:10152000C8000020CC000020D00000209A99999992
:101530009999C93F941200201F85EB51B81E0940AC
:1015400000806640C3F5285C8FC2C53F9999E93F8A
:1015500010B5044604480068204020B102480460E9
:101560002046FFF753FF10BD140401402DE9F84752
:101570000346002294466EE14FF0010808FA02F497
:10158000D1F8008008EA0400A0427DD1DFF8DCA297
:10159000D1F80480A8EB0A09D0453AD014DCB8F1A0
:1015A000030F50D009DCB8F1000F31D0B8F1010FB2
:1015B0001CD0B8F1020F49D120E0B8F1110F18D0BA
:1015C000B8F1120F42D11EE0B9F5881F25D006DC14
:1015D000B9F5803F20D0B9F5801F37D11AE0B9F5B1
:1015E000001F18D0B9F5041F30D117E0D1F80CC096
:1015F0002DE0D1F80C8008F1040C28E0D1F80C8023
:1016000008F1080C23E0D1F80C8008F10C0C1EE066
:1016100000BF00BF00BF00BF00BF00BFD1F80880FF
:10162000B8F1000F02D14FF0040C0BE0D1F80880A4
:10163000B8F1010F03D14FF0080C1C6102E04FF02C
:10164000080C5C6103E04FF0000C00E000BF00BF3D
:10165000FF2801D8984601E003F104084646FF2818
:1016600002D84FEA820803E0A2F108084FEA88088E
:101670004746D6F800804FF00F0909FA07F928EA23
:1016800009080CFA07F900E088E048EA0908C6F8FA
:101690000080D1F8048008F08058B8F1805F7DD1D7
:1016A00000BFDFF8CC81D8F8188048F00108DFF8D7
:1016B000C091C9F81880C846D8F8188008F0010809
:1016C000CDF8008000BF00BF4FEAB9384FEA920959
:1016D00058F829504FEA82784FEA18794FF00F08EE
:1016E00008FA09F825EA0805DFF88881434502D1A0
:1016F0004FF0000816E0DFF88081434502D14FF03B
:1017000001080FE0DFF87481434502D14FF0020871
:1017100008E0DFF86C81434502D14FF0030801E097
:101720004FF004084FEA82794FEA197908FA09F86C
:1017300048EA0505DFF84C814FEA920948F829503C
:10174000D1F8048008F48018B8F5801F0AD1DFF8BA
:101750003881D8F8008048EA0008DFF82C91C9F8F1
:10176000008009E0DFF82081D8F8008028EA00082E
:10177000DFF81491C9F80080D1F8048008F400184B
:10178000B8F5001F10D1DFF8008108F10408D8F87F
:10179000008048EA0008DFF8F09000E05AE009F124
:1017A0000409C9F800800DE0DFF8DC8008F10408C6
:1017B000D8F8008028EA0008DFF8CC9009F1040985
:1017C000C9F80080D1F8048008F40038B8F5003F6B
:1017D0000ED1DFF8B480A8F10408D8F8008048EAF8
:1017E0000008DFF8A490A9F10409C9F800800DE011
:1017F000DFF89480A8F10408D8F8008028EA0008EF
:10180000DFF88490A9F10409C9F80080D1F80480B8
:1018100008F48038B8F5803F0ED1DFF86C80A8F16D
:101820000808D8F8008048EA0008DFF85C90A9F1C1
:101830000809C9F800800DE0DFF84C80A8F108081D
:10184000D8F8008028EA0008DFF83C90A9F10809E0
:10185000C9F80080521CD1F8008028FA02F8B8F1CB
:10186000000F7FF489AEBDE8F8870000000011107A
:101870000010024000080140000C0140001001402F
:10188000001401400800014008040140024693682A
:101890000B400BB1012000E0002070470AB101614C
:1018A00001E00B04036170470148006870470000C5
:1018B00014000020034800680349097808440149DE
:1018C00008607047140000201C00002010B5084874
:1018D000006840F0100006490860032000F0CCF8D2
:1018E0000F2000F007F800F049F8002010BD0000BC
:1018F0000020024070B588B0044600250026002272
:101900002146192000F07AF8192000F067F800BF8E
:101910001648806940F4006014498861084680696F
:1019200000F40060019000BF00BF02A903A800F00E
:101930007DF900F0B3F905460D48B5FBF0F0461E01
:101940000C480D49086040F2E7310B48C160466021
:1019500000210161816000F05FFC20B9064800F0C1
:101960008FFC08B070BD0120FBE7000000100240B2
:1019700040420F00002C01405C05002008B500BF6C
:101980001448806940F00100124988610846806966
:1019900000F00100009000BF00BF00BF0846C06912
:1019A00040F08050C8610846C06900F08050009047
:1019B00000BF00BF00220F21901E00F01FF800BFE3
:1019C0000549486820F0E06040F00070486000BFC2
:1019D00008BD00000010024000000140014608461A
:1019E000002809DB00F01F0301229A4043099B00F5
:1019F00003F1E023C3F8002100BF70472DE9F05F39
:101A000080460D461646002702F0DAFB07463946A7
:101A10002A46334601F00700C0F1070ABAF1040F65
:101A200002D94FF0040A01E0C0F1070AD14600F1E3
:101A3000040ABAF1070F02D24FF0000A01E0A0F148
:101A4000030AD4464FF0010A0AFA09FAAAF1010A78
:101A50000AEA020A0AFA0CFA4FF0010B0BFA0CFB25
:101A6000ABF1010B0BEA030B4AEA0B04214640469B
:101A700002F0AEFBBDE8F09F00BF00F00702064B8E
:101A800019684FF6FF031940044B0B4343EA022148
:101A9000014B196000BF70470CED00E00000FA0533
:101AA00070B504460D460CB9012070BD5A48006857
:101AB00000F00700A8420ED25748006820F0070047
:101AC0002843554908600846006800F00700A8420E
:101AD00001D00120E9E7207800F0020002281DD1A2
:101AE000207800F00400042805D14C48406840F4F8
:101AF000E0604A494860207800F00800082805D1D5
:101B00004648406840F46050444948604348406853
:101B100020F0F000A168084340494860207800F0B8
:101B2000010078B36068012806D13C48006800F4E1
:101B3000003090B90120B8E76068022806D1374824
:101B4000006800F0007040B90120AEE7334800683B
:101B500000F0020008B90120A7E73048406820F0F3
:101B60000300616808432D494860FFF79DFE064663
:101B700009E0FFF799FE801B41F28831884202D9C3
:101B8000032092E707E02548406800F00C006168F8
:101B9000B0EB810FEDD12048006800F00700A842AB
:101BA0000ED91D48006820F0070028431A49086034
:101BB0000846006800F00700A84201D0012074E741
:101BC000207800F00400042807D11448406820F46D
:101BD000E060E168084311494860207800F008009F
:101BE000082808D10D48406820F46050216940EA77
:101BF000C1000A49486000F061F808494968C1F32A
:101C00000311074A515CC84006490860064800684D
:101C1000FFF770FE002048E700200240001002405D
:101C2000568F000820000020180000200F220260BC
:101C30000D4A526802F0030242600B4A526802F0F9
:101C4000F0028260084A526802F4E062C260064A0A
:101C5000526802F46052D2080261044A126802F02B
:101C600007020A6070470000001002400020024096
:101C700001480068704700002000002000B5FFF711
:101C8000F7FF04494968C1F30221034A515CC84087
:101C900000BD000000100240668F000800B5FFF78D
:101CA000E7FF04494968C1F3C221034A515CC840B7
:101CB00000BD000000100240668F000870B50021D2
:101CC0000022002400230020134D696801F00C0558
:101CD000F5B1042D02D0082D19D101E00F4819E00B
:101CE0000F4DC1F38346AB5D01F4803555B10A4D0C
:101CF0006D68C5F340450B4E725D084D5D43B5FB05
:101D0000F2F402E0084D03FB05F4204602E000BFB8
:101D1000024800BF00BF70BD0010024000127A00F0
:101D2000448F0008548F000800093D00F8B50446B0
:101D30000CB90120F8BD207800F00100002878D00F
:101D4000F848406800F00C0004280CD0F5484068C2
:101D500000F00C00082811D1F248406800F48030EF
:101D6000B0F5803F0AD1EF48006800F40030002849
:101D70005FD0606800285CD10120DBE700BF6068AD
:101D8000B0F5803F06D1E748006840F48030E5496F
:101D9000086028E0606858B9E248006820F48030A4
:101DA000E04908600846006820F4802008601AE0D6
:101DB0006068B0F5A02F0BD1DA48006840F48020AD
:101DC000D84908600846006840F4803008600AE09E
:101DD000D448006820F48030D24908600846006882
:101DE00020F48020086000BF606888B1FFF75CFDC8
:101DF000054606E0FFF758FD401B642801D9032083
:101E000098E7C848006800F400300028F2D010E0DD
:101E1000FFF74AFD054606E0FFF746FD401B642834
:101E200001D9032086E7BF48006800F4003000288D
:101E3000F2D1207800F00200022857D1B94840685A
:101E400000F00C0050B1B748406800F00C000828C2
:101E500018D1B448406800F4803098B9B14800689F
:101E600000F0020020B12069012801D0012061E7C3
:101E7000AC48006820F0F800616940EAC100A94957
:101E8000086033E02069E8B10120A7490860FFF746
:101E90000BFD054606E0FFF707FD401B022801D9B0
:101EA000032047E79F48006800F002000028F2D0B6
:101EB0009C48006820F0F800616940EAC100994937
:101EC000086013E0002098490860FFF7EDFC054624
:101ED00006E0FFF7E9FC401B022801D9032029E7AF
:101EE0009048006800F002000028F2D1207800F04D
:101EF000080008282DD1A069B8B101208B490860DD
:101F0000FFF7D2FC054606E0FFF7CEFC401B022897
:101F100001D903200EE78348406A00F00200002840
:101F2000F2D0012001F064FC13E000207F4908603A
:101F3000FFF7BAFC054606E0FFF7B6FC401B022897
:101F400001D90320F6E67748406A00F00200002835
:101F5000F2D1207800F00400042873D100277148E2
:101F6000C06900F0805070B900BF6E48C06940F091
:101F700080506C49C8610846C06900F080500090EC
:101F800000BF00BF01276A48006800F48070B0B944
:101F90006748006840F4807065490860FFF784FC7A
:101FA000054606E0FFF780FC401B642801D90320AA
:101FB000C0E65F48006800F480700028F2D000BFDF
:101FC000E068012806D15748006A40F001005549F1
:101FD000086227E0E06858B95248006A20F0010022
:101FE000504908620846006A20F00400086219E0BF
:101FF000E06805280BD14B48006A40F004004949CD
:1020000008620846006A40F0010008620AE045489C
:10201000006A20F00100434908620846006A20F087
:102020000400086200BFE068A0B1FFF73DFC054670
:1020300009E0FFF739FC401B41F28831884202D9A0
:10204000032077E622E03748006A00F0020000280B
:10205000EFD012E0FFF728FC054608E0FFF724FC6C
:10206000401B41F28831884201D9032062E62D48A5
:10207000006A00F002000028F0D1012F05D12948A4
:10208000C06920F080502749C86100BFE069C8B32B
:102090002448406800F00C00082860D0E06902285D
:1020A00048D1002020490866FFF7FEFB054606E000
:1020B000FFF7FAFB401B022801D903203AE6194832
:1020C000006800F000700028F2D1206AB0F5803F6F
:1020D00007D11448406820F40030A1680843114932
:1020E0004860D4E9080108430E49496821F4741195
:1020F00008430C49486001200B490866FFF7D4FBF0
:10210000054607E03DE0FFF7CFFB401B022801D961
:1021100003200FE60348006800F000700028F2D0AA
:102120002FE00000001002400000424280044242C2
:1021300000700040002014490866FFF7B5FB054613
:1021400006E0FFF7B1FB401B022801D90320F1E5AF
:102150000E48006800F000700028F2D111E0E0693C
:10216000012800D1E6E50948466806F48031206A76
:10217000814204D106F47011606A814201D00120CD
:10218000D8E50020D6E500000000424200100240E1
:102190007047704730B502460B4600BF92F83C00CE
:1021A000012801D1022030BD012082F83C0000BF8F
:1021B000022082F83D00106844681068816824F0AD
:1021C00070041868044310684460104D1068A842F9
:1021D0000BD01068B0F1804F07D00D4D1068A842A9
:1021E00003D00C4D1068A84205D121F08001586839
:1021F000014310688160012082F83D0000BF00208B
:1022000082F83C0000BF00BFCDE70000002C014079
:10221000000400400008004010B504460CB901203D
:1022200010BD94F83D0028B9002084F83C002046F9
:1022300000F025F8022084F83D00211D206801F0FF
:102240006BFB012084F8460000BF84F83E000121AA
:102250003F200155402001554120015500BF00BFDE
:10226000012084F8420043200155442001554520B7
:10227000015500BF012084F83D000020D0E77047E1
:10228000014691F83D00012801D00120704702204D
:1022900081F83D000868C06840F001000B68D86014
:1022A000124B086898420BD00868B0F1804F07D0F5
:1022B0000F4B0868984203D00E4B086898420CD127
:1022C0000868806800F00702062A0CD008680068D9
:1022D00040F001000B68186005E00868006840F0F5
:1022E00001000B6818600020D0E70000002C0140BE
:1022F00000040040000800402DE9F04104460D466E
:1023000014B90120BDE8F08194F83D0028B90020FF
:1023100084F83C00204600F051F8022084F83D008B
:102320002068806844F20701884321688860211D85
:10233000206801F0F1FA2068D0F8088020688669EA
:102340002068076A286840EA080840F2033086439C
:10235000A969A86840EA0120064340F60C4086437C
:102360004FF2F0008643E969E86840EA012006433D
:1023700028690001296A40EA0130064327F0220754
:102380006969686840EA011007432068C0F808805E
:102390002068866120680762012084F8460084F87E
:1023A0003E0001213F200155012084F842004320D6
:1023B0000155012084F83D000020A3E710B586B048
:1023C0000446002002900390049005902068B0F12C
:1023D000804F24D100BF2748C06940F00100254943
:1023E000C8610846C06900F00100019000BF00BF4D
:1023F00000BF0846806940F0040088610846806993
:1024000000F00400019000BF00BF032002900020F4
:102410000390049002A91848FFF7A8F827E017498D
:102420002068884223D100BF1248C06940F00400F0
:102430001049C8610846C06900F00400019000BF5F
:1024400000BF00BF0846806940F008008861084668
:10245000806900F00800019000BF00BFC02002901A
:1024600000200390049002A90548FFF77FF806B00A
:1024700010BD0000001002400008014000080040AC
:10248000000C01402DE9F04304460D4694F83E60EF
:102490003F20075D94F84280432010F804906DB906
:1024A000012E02D1B8F1010F02D00120BDE8F08366
:1024B000022084F83E0084F8420025E0042D0CD16F
:1024C000012F02D1B9F1010F01D00120EEE7022165
:1024D0003F2001554320015516E0012E07D1012F61
:1024E00005D1B8F1010F02D1B9F1010F01D00120DE
:1024F000DCE7022084F83E0002213F200155022043
:1025000084F842004320015515B1042D0CD105E09B
:1025100001220021206801F039FA10E00122042193
:10252000206801F033FA0AE001220021206801F05E
:102530002DFA01220421206801F028FA00BF00BF13
:102540002068006840F00100216808600020ADE7C5
:10255000704710B5044620680069C0F34000D8B148
:102560002068C068C0F34000B0B16FF0020021687D
:102570000861012020772068806900F0030018B10D
:102580002046FFF7E5FF05E0204600F0D9F8204699
:1025900000F0AEF90020207720680069C0F38000C9
:1025A000D8B12068C068C0F38000B0B16FF00400FB
:1025B00021680861022020772068806900F440705B
:1025C00018B12046FFF7C4FF05E0204600F0B8F838
:1025D000204600F08DF90020207720680069C0F3C4
:1025E000C000D8B12068C068C0F3C000B0B16FF0BF
:1025F000080021680861042020772068C06900F085
:10260000030018B12046FFF7A3FF05E0204600F0C5
:1026100097F8204600F06CF90020207720680069C8
:10262000C0F30010D8B12068C068C0F30010B0B18A
:102630006FF0100021680861082020772068C069C9
:1026400000F4407018B12046FFF782FF05E02046F5
:1026500000F076F8204600F04BF900202077206843
:10266000006900F0010058B12068C06800F0010066
:1026700030B16FF0010021680861204600F044FA93
:1026800020680069C0F3C01058B12068C068C0F36A
:10269000C01030B16FF08000216808612046FFF75C
:1026A00077FD20680069C0F3801058B12068C068C9
:1026B000C0F3801030B16FF04000216808612046FF
:1026C00000F03EFA20680069C0F3401058B120685D
:1026D000C068C0F3401030B16FF02000216808617D
:1026E0002046FFF756FD10BD10B586B00446002009
:1026F00002900390049005900E492068884216D1FC
:1027000000BF0D48806940F004000B49886108460D
:10271000806900F00400019000BF00BFC02002905B
:1027200002200390059002A90448FEF71FFF06B09F
:1027300010BD0000000400400010024000080140ED
:1027400070472DE9F04104460D461646002700BFAC
:1027500094F83C00012802D10220BDE8F08101205C
:1027600084F83C0000BF36B1042E1BD0082E31D0B7
:102770000C2E5ED145E02946206801F019F9206849
:10278000806940F00800216888612068806920F035
:1027900004002168886120688069296908432168EC
:1027A000886148E02946206801F032F92068806994
:1027B00040F40060216888612068806920F48060AE
:1027C0002168886120688069296940EA01202168C0
:1027D000886130E02946206801F04EF92068C06920
:1027E00040F008002168C8612068C06920F004003A
:1027F0002168C8612068C069296908432168C861E7
:1028000019E02946206801F06BF92068C06940F49E
:1028100000602168C8612068C06920F48060216878
:10282000C8612068C069296940EA01202168C8613F
:1028300001E0012700BF00BF00BF002084F83C007A
:1028400000BF384689E710B504460CB9012010BD19
:1028500094F83D0028B9002084F83C00204600F0A0
:1028600025F8022084F83D00211D206801F054F86D
:10287000012084F8460000BF84F83E0001213F207B
:102880000155402001554120015500BF00BF0120E6
:1028900084F842004320015544200155452001554C
:1028A00000BF012084F83D000020D0E738B5044681
:1028B0000D492068884215D100BF0C48C06940F01E
:1028C00002000A49C8610846C06900F00200009091
:1028D00000BF00BF002205211D20FFF78FF81D203B
:1028E000FFF77CF838BD00000004004000100240F3
:1028F000017F042903D10821044A116005E0017F0A
:10290000082902D11021014A1160704714080140C2
:1029100070B504460D4615B994F83E000BE0042D41
:1029200002D13F20005D06E0082D02D14020005D6D
:1029300001E04120005D012801D0012070BD1DB9DA
:10294000022084F83E000EE0042D03D102213F2036
:10295000015508E0082D03D102214020015502E075
:1029600002214120015501222946206801F00EF87C
:1029700019492068884201D1012000E0002028B1D7
:102980002068406C40F40040216848641249206887
:1029900088420BD02068B0F1804F07D00F492068E3
:1029A000884203D00E49206888420CD12068806894
:1029B00000F00706062E0CD02068006840F00100E9
:1029C0002168086005E02068006840F00100216887
:1029D00008600020B2E70000002C01400004004025
:1029E00000080040F0B504460D46002615B994F8DD
:1029F0003E000BE0042D02D13F20005D06E0082DD3
:102A000002D14020005D01E04120005D012801D09D
:102A10000120F0BD1DB9022084F83E000EE0042D17
:102A200003D102213F20015508E0082D03D10221E6
:102A30004020015502E002214120015535B1042D0D
:102A40000BD0082D10D00C2D1CD114E02068C068CC
:102A500040F002002168C86016E02068C06840F0BD
:102A600004002168C8600FE02068C06840F00800DA
:102A70002168C86008E02068C06840F01000216844
:102A8000C86001E0012600BF00BF76BB01222946D5
:102A9000206800F07BFF19492068884201D101209D
:102AA00000E0002028B12068406C40F4004021681C
:102AB00048641249206888420BD02068B0F1804FEA
:102AC00007D00F492068884203D00E492068884209
:102AD0000CD12068806800F00707062F0CD0206812
:102AE000006840F001002168086005E02068006887
:102AF00040F001002168086030468AE7002C014060
:102B0000000400400008004010B504460948006871
:102B100010B10820084908600648001D006810B17F
:102B200010200549086005492068884201D1FEF758
:102B3000C1FE10BD3C04004010080140002C0140C3
:102B40007047704770B50446002520684069C0F39F
:102B5000C01594F84100212817D1B5B100BF00BFBE
:102B60002168143151E8001F21F0800021681431E0
:102B700041E80002002AF3D100BFA06B10B1A06BA6
:102B8000FEF75CFA204601F0B3F820684069C0F314
:102B9000801594F84200222817D1B5B100BF00BFBC
:102BA0002168143151E8001F21F0400021681431E0
:102BB00041E80002002AF3D100BFE06B10B1E06BE6
:102BC000FEF73CFA204601F04DF8002070BD70473A
:102BD0002DE9F84F0446206805682068C66820681B
:102BE00047694FF00009CA4605F00F09B9F1000F17
:102BF0000AD105F0200038B106F0200020B12046AF
:102C000001F089F8BDE8F88FB9F1000F7BD007F02B
:102C1000010018B906F49070002874D005F0010086
:102C200030B106F4807018B1606C40F0010060644F
:102C300005F0040030B107F0010018B1606C40F0FD
:102C40000200606405F0020030B107F0010018B125
:102C5000606C40F00400606405F0080048B106F0C4
:102C6000200010B907F0010018B1606C40F00800B6
:102C70006064606C002845D005F0200028B106F0A3
:102C8000200010B1204601F046F820684069C0F3EA
:102C9000801A606C00F0080010B9BAF1000F2CD057
:102CA000204600F0DFFF2068406900F0400000B3DC
:102CB00000BF00BF2168143151E8001F21F040001F
:102CC0002168143141E80002002AF3D100BFE06B13
:102CD00050B17748E16B4863E06BFEF7DBF988B1F0
:102CE000E06B416B88470DE02046FFF770FF09E07D
:102CF00009E02046FFF76BFF04E02046FFF767FF7F
:102D0000002060647EE7206B012877D105F0100079
:102D1000002873D006F010000028FAD000BF002071
:102D2000009020680068009020684068009000BF14
:102D300000BF2068406900F0400000285FD0E06BD1
:102D4000006840681FFA80F8B8F1000F55D0A08DD8
:102D5000404552DDA4F82E80E06B8069202843D0E6
:102D600000BF00BF21680C3151E8001F21F48070C2
:102D700021680C3141E80002002AF3D100BF00BFF6
:102D800000BF2168143151E8001F21F001002168C3
:102D9000143141E80002002AF3D100BF00BF00BF98
:102DA0002168143151E8001F21F0400021681431DE
:102DB00041E80002002AF3D100BF202084F842003D
:102DC0000020206300BF00BF21680C3151E8001FC4
:102DD00021F0100021680C3141E80002002AF3D1F3
:102DE00000BFE06BFEF72AF902206063A08DE28D40
:102DF000801A81B22046FFF7A4FE03E742E0A08DCF
:102E0000E18D401A1FFA80F8E08DD0B3B8F1000FC1
:102E100037D000BF00BF21680C3151E8001F21F4FA
:102E2000907021680C3141E80002002AF3D100BF04
:102E300000BF00BF2168143151E8001F21F00100DC
:102E40002168143141E80002002AF3D100BF20209C
:102E500084F842000020206300BF00BF21680C31CD
:102E600051E8001F21F0100021680C3141E80002F8
:102E7000002AF3D100BF0220606341462046FFF7DD
:102E800060FEBFE605F0800030B106F0800018B1AA
:102E9000204601F0A1F8B5E605F0400030B106F09B
:102EA000400018B1204600F013FFABE600BFA9E6D2
:102EB000293B000810B504460CB9012010BDA069DB
:102EC00000B100E000BF94F8410028B9002084F868
:102ED0004000204600F02AF8242084F841002068B1
:102EE000C06820F400502168C860204600F092FFBE
:102EF0002068006920F490402168086120684069DA
:102F000020F02A00216848612068C06840F4005021
:102F10002168C86000206064202084F8410084F8A3
:102F200042000020606300BFC8E7000010B586B013
:102F300004460020029003900490059052492068B6
:102F400088422FD100BF5148806940F480404F49EA
:102F500088610846806900F48040019000BF00BF8E
:102F600000BF0846806940F0040088610846806917
:102F700000F00400019000BF00BF4815029002203D
:102F800003900320059002A94148FEF7EFFA4FF4A1
:102F90008060029000200390049002A93C48FEF754
:102FA000E5FA6EE03B49206888426AD100BF3748A5
:102FB000C06940F480203549C8610846C06900F402
:102FC0008020019000BF00BF00BF0846806940F02C
:102FD000080088610846806900F00800019000BF81
:102FE00000BF08150290022003900320059002A95B
:102FF0002948FEF7BBFA4FF40060029000200390CE
:103000000220049002A92448FEF7B0FA234824497C
:103010000860002048600021214881608021C16053
:103020000021016141618161C161FEF759F908B177
:10303000FDF7F7FF00BF1A48E063446200BF17487E
:103040001438184908601020486000211548816034
:103050008021C1600021016141618161C161FEF790
:103060003FF908B1FDF7DDFF00BF0E48A0634462E1
:1030700000BF002205212720FEF7C0FC2720FEF715
:10308000ADFC06B010BD0000003801400010024049
:103090000008014000480040000C014030000240A0
:1030A000D40400201805002070B504460D461646CD
:1030B00094F8420020280BD105B10EB9012070BD53
:1030C0000020206332462946204600F021FFF6E723
:1030D0000220F4E770477047704700BFFEE700002A
:1030E00010B500224FF400710C48FEF7D7FB00F03A
:1030F00017F8012211020948FEF7D0FB00F010F882
:1031000000224FF480710548FEF7C8FB00F008F874
:10311000012251020148FEF7C1FB10BD000C014025
:10312000002001E0411CC8B20128FBDB7047000011
:1031300000B585B000BF0E48806940F008000C491A
:1031400088610846806900F00800009000BF00BF59
:103150004FF440700190032004901120029001A9C7
:103160000448FEF703FA00F0A1F805B000BD000026
:1031700000100240000C014010B5012251020A4823
:10318000FEF78CFBFFF7CCFF012211020648FEF789
:1031900085FBFFF7C5FF00224FF480710248FEF760
:1031A0007DFBFFF7BDFF10BD000C014070B505466B
:1031B000002400261AE06006040E012211021048C5
:1031C000FEF76CFBFFF7ACFF4FF400710C48FEF705
:1031D0005DFB08B1601CC4B200224FF48071084846
:1031E000FEF75CFBFFF79CFF701CC6B2082EE2DB0B
:1031F00015B9FFF7C1FF01E0FFF772FF204670BD70
:10320000000C014070B5044600252AE004F080005F
:1032100028B1012251021448FEF740FB05E00022CC
:103220004FF400711048FEF739FBFFF779FF0122D8
:1032300011020D48FEF732FBFFF772FF00224FF438
:1032400080710948FEF72AFB072D04D101225102A3
:103250000548FEF723FB6006040EFFF761FF681CBC
:10326000C5B2082DD2DB70BD000C014010B50122A3
:1032700051020D48FEF712FB012211020A48FEF727
:103280000DFBFFF74DFF00224FF400710648FEF7DB
:1032900005FBFFF745FF00224FF480710248FEF75F
:1032A000FDFAFFF73DFF10BD000C014010B50022F4
:1032B0004FF400710748FEF7F1FA012211020548A8
:1032C000FEF7ECFAFFF72CFF012251020148FEF74E
:1032D000E5FA10BD000C014010B5012251020F4863
:1032E000FEF7DCFAFFF71CFF012211020B48FEF784
:1032F000D5FAFFF715FF4FF400710848FEF7C6FA3C
:1033000008B1012400E0002400224FF4807103483A
:10331000FEF7C4FAFFF704FF204610BD000C014081
:103320002DE9F04106460F4614461D46FFF79EFF65
:10333000002141EA4601C8B2FFF764FFFFF7CCFF66
:1033400020B1FFF7B3FF0120BDE8F0813846FFF759
:1033500059FFFFF7C1FFFFF789FF012101EB46018C
:10336000C8B2FFF74FFFFFF7B7FF0DE0012C04D104
:103370000020FFF71BFF287003E00120FFF716FF76
:103380002870601EC4B26D1C002CEFD1FFF78EFFB9
:103390000020D9E72DE9F04105460E46174698462C
:1033A000FFF764FF002141EA4501C8B2FFF72AFF99
:1033B000FFF792FF20B1FFF779FF0120BDE8F08110
:1033C0003046FFF71FFFFFF787FF00240CE018F8D7
:1033D0000400FFF717FFFFF77FFF18B1FFF766FF45
:1033E0000120EBE7601CC4B2BC42F0DBFFF75EFFDC
:1033F0000020E3E708B500BF0E48406940F0010037
:103400000C4948610846406900F00100009000BF87
:1034100000BF002205210C20FEF7F0FA0C20FEF779
:10342000DDFA002205210D20FEF7E8FA0D20FEF757
:10343000D5FA08BD0010024000B59DB01C22184905
:1034400016A8FCF7FEFE002116A804F05AFD154947
:1034500008601C2212491C310FA8FCF7F2FE002163
:103460000FA804F04EFD104908601C220C493831A9
:1034700008A8FCF7E6FE002108A804F042FD0B496D
:1034800008601C220649543101A8FCF7DAFE00212D
:1034900001A804F036FD064908601DB000BD00001B
:1034A000D48E000804000020080000200C0000203A
:1034B0001000002000B585B000200190029003901C
:1034C000049000BF3F48806940F010003D4988618A
:1034D0000846806900F01000009000BF00BF00BFE8
:1034E0000846806940F0200088610846806900F045
:1034F0002000009000BF00BF00BF0846806940F078
:10350000040088610846806900F00400009000BF54
:1035100000BF00BF0846806940F008008861084687
:10352000806900F00800009000BF00BF00224FF447
:1035300000512548FEF7B2F900221C212348FEF76E
:10354000ADF900224FF4C6412148FEF7A7F94FF428
:10355000005001900120029000200390022004906E
:1035600001A91948FEF702F81C20019001200290E1
:10357000002003900220049001A91448FDF7F6FFF3
:103580004FF4C640019001200290002003900220D9
:10359000049001A90E48FDF7E9FF4FF480700190F7
:1035A0000C4802900020039001A90848FDF7DEFFB7
:1035B00000220A211720FEF721FA1720FEF70EFA43
:1035C00005B000BD0010024000100140000801409D
:1035D000000C01400000311000B58BB0242102A87E
:1035E000FCF748FE0020009001904FF08040174902
:1035F0000860002048600021144881604FF6FF7188
:10360000C1600021016181610320029000200390CC
:10361000012004900020059006900790012008905A
:10362000002009900A9002A90848FEF765FE08B13B
:10363000FDF7F7FC00200090019069460348FEF773
:10364000A9FD08B1FDF7EDFC0BB000BD6C03002037
:1036500000B589B00020079008901C216846FCF74F
:1036600009FE2448244908600020486000212248BF
:10367000816041F63F71C160002101618161FFF706
:10368000E2F808B1FDF7CDFC00200790089007A9EB
:103690001948FEF77FFD08B1FDF7C3FC60200090DC
:1036A0000020019002900490002269461248FFF722
:1036B00048F808B1FDF7B5FC042269460E48FFF74B
:1036C00040F808B1FDF7ADFC082269460A48FFF74B
:1036D00038F808B1FDF7A5FC0C2269460648FFF74B
:1036E00030F808B1FDF79DFC0348FEF7FDFF09B077
:1036F00000BD000000040040B403002000B58BB002
:10370000242102A8FCF7B6FD002000900190184883
:1037100018490860002048600021164881604FF673
:10372000FF71C160002101618161032002900020CE
:10373000039001200490002005900690079001203E
:103740000890002009900A9002A90A48FEF7D4FDCB
:1037500008B1FDF766FC002000900190694605481D
:10376000FEF718FD08B1FDF75CFC0BB000BD0000D2
:1037700000080040FC03002010B50B480B4908600E
:103780004FF4E1304860002108488160C160016168
:103790000C21416100218161C161FFF78BFB08B100
:1037A000FDF73FFC10BD000000380140440400203C
:1037B00010B50B480B4908604FF4E1304860002118
:1037C00008488160C16001610C2141610021816173
:1037D000C161FFF76FFB08B1FDF723FC10BD0000CE
:1037E000004800408C04002000BFFEE700BFFEE759
:1037F00008B508490968C9084FF47A72B1FBF2F1BB
:103800004143009100BF00BF00994A1E0092002969
:10381000F9D108BD2000002000BFFEE705F0DCF86C
:1038200000BF03F07BFB0028FBD1012005490860A5
:1038300005F0CEFA00BFFDF795FB052004F050FB24
:10384000F9E700000000002000BFFEE700BFFDF721
:1038500093FBC82004F044FBF9E7000010B500BF5B
:10386000502080F31188BFF34F8FBFF36F8F00BFDD
:1038700005F00AFA18B14FF080500449086000BF03
:10388000002080F3118800BF10BD000004ED00E0AF
:1038900000B58FB0282105A8FCF7ECFC1421684680
:1038A000FCF7E8FC0120059000040690002007903A
:1038B0000120099002200C90C1030D914FF4E011FA
:1038C0000E9105A8FEF732FA08B1FDF7AAFB0F200A
:1038D000009002200190002002904FF4806003903D
:1038E0000020049002216846FEF7DAF808B1FDF7DF
:1038F00098FB0FB000BD704710B50248FEF729FED7
:1039000010BD00005C05002010B50248FEF721FE46
:1039100010BD0000B403002010B50268184B984297
:1039200008D0B0F1804F05D0164B984202D0164B0C
:10393000984203D122F070024B681A43104B984210
:1039400008D0B0F1804F05D00E4B984202D00E4BFC
:10395000984203D122F44072CB681A4322F08003CC
:103960004C6943EA040202608B68C3620B6883629D
:10397000034B984201D10B6903630123436110BDDE
:10398000002C0140000400400008004030B501F068
:103990001F05012404FA05F3046A9C430462046AC7
:1039A00001F01F0502FA05F52C43046230BD00004A
:1039B00030B5026A056A25F001050562436884692D
:1039C00024F0700424F003040D682C4322F002025A
:1039D0008D682A430D4DA84206D100BF22F008028F
:1039E000CD682A4322F00402084DA84207D123F4EF
:1039F000807323F400734D692B438D692B4343601F
:103A000084614D684563026230BD0000002C0140B6
:103A100030B5026A056A25F01005056243688469BD
:103A200024F4E04424F440740D6844EA052422F0B0
:103A300020028D6842EA05120E4DA84207D100BF50
:103A400022F08002CD6842EA051222F04002094DC0
:103A5000A84209D123F4806323F400634D6943EA4B
:103A600085038D6943EA8503436084614D688563FE
:103A7000026230BD002C014030B5026A056A25F4AF
:103A8000807505624368C46924F0700424F003045F
:103A90000D682C4322F400728D6842EA05220F4D16
:103AA000A84207D100BF22F40062CD6842EA052295
:103AB00022F48062094DA84209D123F4805323F4F3
:103AC00000534D6943EA05138D6943EA05134360CA
:103AD000C4614D68C563026230BD0000002C014026
:103AE00030B5036A056A25F4805505624468C269E9
:103AF00022F4E04222F440720D6842EA052223F4E7
:103B000000538D6843EA0533064DA84204D124F4DE
:103B100080444D6944EA85144460C2614D6805647F
:103B2000036230BD002C014070B505466C6A002070
:103B3000E085E0842046FFF74AF870BD70B5064680
:103B40000025746A20684069C0F3C01594F84100EC
:103B5000212805D125B10020E084204600F0C8F8D6
:103B600020684069C0F3801594F84200222805D1EE
:103B700025B10020E085204600F074F8606C40F02C
:103B8000100060642046FFF722F870BD70B505464E
:103B90006C6A2868006800F02000002842D1E085A7
:103BA00000BF00BF21680C3151E8001F21F4807074
:103BB00021680C3141E80002002AF3D100BF00BFA8
:103BC00000BF2168143151E8001F21F00100216875
:103BD000143141E80002002AF3D100BF00BF00BF4A
:103BE0002168143151E8001F21F040002168143190
:103BF00041E80002002AF3D100BF202084F84200EF
:103C0000206B01280ED100BF00BF21680C3151E8A4
:103C1000001F21F0100021680C3141E80002002A49
:103C2000F3D100BF00206063206B012804D1A18D77
:103C30002046FEF786FF02E02046FFF74BFA70BDF4
:103C400070B505466C6A01206063206B012805D1C0
:103C5000A08D41082046FEF774FF02E02046FFF7E2
:103C60003AFA70BD00BF00BF02680C3252E8002F64
:103C700022F4907102680C3242E80013002BF3D159
:103C800000BF00BF00BF0268143252E8002F22F0CC
:103C900001010268143242E80013002BF3D100BF87
:103CA000016B01290ED100BF00BF02680C3252E83F
:103CB000002F22F0100102680C3242E80013002BA2
:103CC000F3D100BF202180F842100021016370472A
:103CD00010B504462068C06820F040002168C86024
:103CE000202084F841002046FFF7F6F9002010BD9F
:103CF00000BF00BF02680C3252E8002F22F0C00162
:103D000002680C3242E80013002BF3D100BF2021DF
:103D100080F841107047F8B5044694F84200222814
:103D200075D1A068B0F5805F0CD1206950B900252D
:103D3000A66A20684068C0F308003080A06A801C32
:103D4000A06215E0A56A0026A068B0F5805F03D0E8
:103D5000A06828B9206918B920684068287004E074
:103D60002068406800F07F002870A06A401CA062B4
:103D7000E08D401E80B2E085002846D12068C068F2
:103D800020F020002168C8602068C06820F480709E
:103D90002168C8602068406920F0010021684861FE
:103DA000202084F8420000206063206B012826D187
:103DB0000020206300BF00BF21680C3151E8001FC4
:103DC00021F0100021680C3141E80002002AF3D1F3
:103DD00000BF2068006800F0100010280AD100BF62
:103DE00000200090206800680090206840680090E3
:103DF00000BF00BFA18D2046FEF7A3FE02E02046D3
:103E0000FFF768F90020F8BD01E00020FBE7022081
:103E1000F9E7000070B504462168096921F44051B2
:103E2000E2681143226811612269A1681143626945
:103E300041EA02052168C96841F20C6291432943B5
:103E40002268D1602168496921F44071A269114357
:103E5000226851612D4A2168914202D1FDF71EFF6F
:103E600001E0FDF70BFF00EBC00101EB0011626800
:103E70009200B1FBF2F100EBC00202EB00126368AA
:103E80009B00B2FBF3F26423B2FBF3F202EBC2033A
:103E900003EB0212A1EB8201322202EB0111642238
:103EA000B1FBF2F101F0F00100EBC00202EB0012F5
:103EB00063689B00B2FBF3F26423B2FBF3F201EB05
:103EC000021200EBC00101EB001163689B00B1FB23
:103ED000F3F100EBC00303EB00136668B600B3FB1D
:103EE000F6F36426B3FBF6F303EBC30606EB03130A
:103EF000A1EB8301322303EB01116423B1FBF3F146
:103F000001F00F0111442268916070BD003801403A
:103F100077B581B0044615460298A062A5850020B9
:103F20006064222084F842002848E16B88622848B7
:103F3000E16BC8622748E16B08630020E16B4863CE
:103F400002AE32682368191D2B46E06BFDF7FCF9C1
:103F500000BF002000902068006800902068406842
:103F6000009000BF00BF206970B100BF00BF216892
:103F70000C3151E8001F41F4807021680C3141E898
:103F80000002002AF3D100BF00BF00BF2168143136
:103F900051E8001F41F001002168143141E800029E
:103FA000002AF3D100BF00BF00BF2168143151E8DF
:103FB000001F41F040002168143141E80002002A4E
:103FC000F3D100BF002004B070BD00008D3B00089D
:103FD000413C00083D3B0008014691F84100212882
:103FE00028D18868B0F5805F0BD1086948B90A6AA2
:103FF0001088C0F308000B685860086A801C0862CB
:1040000005E00B6A581C086218780B685860C88C69
:10401000401E80B2C88458B90868C06820F080008B
:104020000B68D8600868C06840F040000B68D86032
:10403000002070470220FCE738B51E480068006881
:10404000C0F30010002830D000241A48006800682F
:10405000C0F3001444B300BF00200090154800686E
:1040600000680090134800684068009000BF00BFDF
:104070001048006805680F48006845680D48FEF75D
:1040800061FD0D4800684568C5F11A000B4948708C
:1040900001F11C00FCF750FE0120084908701A22AB
:1040A0001C310448FFF700F800BF0248FEF790FDFE
:1040B00038BD00008C040020D4040020AC12002085
:1040C00000B589B00CA000F057F813484068009084
:1040D0001148806802901048C06803900E4800693B
:1040E00004900D48406906900B4880690890684626
:1040F000FCF7A2FD09B000BD5570646174655049BC
:1041000044506172616D73546F436F6E74726F6C63
:1041100020576F726B200A00AC12002000BFFEE730
:1041200010B50446002005E0002204F11C010A54E9
:10413000411CC8B21A28F7DBA520A0705A20E070F5
:104140000020207060706060A060E06020616061AD
:10415000A06102A000F010F810BD00005573657258
:104160005F55534152545F496E697420436F6D70BF
:104170006C657465200A00000FB4054B10B503A9E7
:10418000044A029800F032FC10BC5DF814FB0000F9
:104190007D64000810010020490050EAC12018BFCA
:1041A00004204A0D18BF40F0010040F2FF72B2EB4C
:1041B000515F08BF40F00200012808BF052070478A
:1041C00002480068C0F30220704700000CED00E0D8
:1041D00010B5002804DB0A07130E054A135406E045
:1041E0000A07140E034A00F00F031B1FD45410BD1E
:1041F00000E400E018ED00E02DE9F74F144694B01C
:104200000021C4E902111599079121F00045C9491F
:104210008D4206DC1599C4E9000117B00020BDE805
:10422000F08FC549DFF814A3A9423CDD0799C44EBD
:104230000029C44FC44A1599534619DDFCF79BF970
:10424000554506D0C14AC24BFCF795F9C4E90001B7
:104250000AE04FF0D352BE4BFCF78DF932463B4695
:10426000FCF789F9C4E9000117B00120BDE8F08F1F
:10427000FCF7E0F8554506D0B44AB54BFCF7DAF840
:10428000C4E900010AE04FF0D352B14BFCF7D2F879
:1042900032463B46FCF7CEF8C4E9000117B04FF0B8
:1042A000FF30BDE8F08FAB49A942159978DB21F0CA
:1042B000004183468846A84AA84BFCF762F90022D1
:1042C000A74BFCF7B7F8FCF789FA0990FCF748FA16
:1042D00006460F469C4A5346FCF753F943465A4656
:1042E000FCF74CF980468A46984A994B3046394645
:1042F000FCF747F92A0D01250B9242465346FCF77D
:104300003DF9032DC4E9000139D00B98C1F30A51DE
:10431000401A05EB45111139814230DA9148C34604
:10432000784400EB0510CDF80CA00C90D0E90023E8
:1043300030463946FCF725F902460B4604910690B3
:1043400058460399FCF717F980468A4602460B4601
:1043500058460399FCF70FF9049B069AFCF70BF9F2
:1043600083460C9803913946D0E902233046FCF786
:1043700008F95A46039BFCF7FEF86D1CBDE7079849
:104380000028A2BF099817B0BDE8F08F616881F0DE
:1043900000416160099817B04042BDE8F08FFFE727
:1043A00084461598C1F31301C0F30A50A0F2F5300A
:1043B0004FEA601800F01F06C6F12000139000209D
:1043C0000690079041F4801E05206D4676B1664A3E
:1043D00008EB00017A4452F8213002EB8101B3402E
:1043E0004A68139922FA01F1194305E05F4908EB85
:1043F0000002794451F82210A1FB0E27A1FB0C13F7
:104400001A449A4234BF0123002303EB070A05EB49
:104410008003D3E901B70F448F4234BF012100214B
:1044200093448B4411B1934502D903E0934501D2E3
:10443000012100E00021C3E901B7514445F82010F3
:10444000011EA0F10100C1DC0298059F00F100509F
:10445000800F12900298DDE903568000FCF780F986
:10446000834628460D91FCF7DAFB6FF01D02FCF73E
:104470002BFBCDE90E013046FCF7D1FB6FF03D027E
:10448000FCF722FB80468A463846FCF7C8FB6FF0F3
:104490005D02FCF719FB0746424653461191FBF7B4
:1044A000C9FFDDE90E23FBF7C5FF5A460D9BFBF75D
:1044B000C1FF00250E465A4628460D9BFCF75BF8C7
:1044C000DDE90E23FCF757F842465346FCF753F854
:1044D0003A46119BFCF752F8DFF898A0244A53465D
:1044E000FCF74FF807468846234A244B31462846B6
:1044F000FCF747F83A464346FBF79CFF07468846D9
:104500004FF0A842534631462846FCF73AF83A465F
:104510004346FBF78FFF159A12F0004F04D0129A12
:1045200081F0004152421292C4E90001129817B082
:10453000BDE8F08FFB21E93F7CD90240FB21F93F28
:104540007370032E8A19A33B000040543163621A32
:1045500061B4D03DFB21394183C8C96D305FE43F70
:104560000000E03FB459000030590000125900002B
:10457000182D4454FB21F93D3326A611460B113C5E
:104580002DE9FF4D21F0004807460C46B8F1795F50
:1045900008DAFCF723F9002801BF0020324904B0F3
:1045A000BDE8F08D3A46234610461946FBF7E9FF71
:1045B000054602462D480E460B460621784400F07B
:1045C0005DF82A463346FBF7DCFFDDE9022382462D
:1045D0008B4638462146FBF7D4FF04460F46524629
:1045E0005B4628463146FBF7CCFF22463B46FBF7AD
:1045F000C2FF07468A464FF0FF3228463146FCF795
:1046000063FA1B4A90450ADA3A465346FBF7B3FF72
:1046100004B00022BDE8F04D134BFBF7AFBF154AC5
:104620004245A8BFA8F500154FF00004B8BF124DD1
:1046300022462B46FBF79FFF0646884622462B461E
:1046400000200949FBF797FF04460D463A465346BA
:1046500030464146FBF78FFF04B022462B46BDE8AB
:10466000F04DFBF78BBF00000000F03FE05600006C
:104670003333D33F0000E93F0000D23F2DE9F04142
:104680004F1E00EBC7010446D1E9000115461E4646
:1046900037F006020DD02A463346FBF772FF7F1E25
:1046A00004EBC703D3E90023FBF7C4FE37F006028F
:1046B000F1D1022F25D0042F13D0062F18BFBDE84B
:1046C000F0812A463346FBF75CFFD4E90A23FBF767
:1046D000B1FE2A463346FBF754FFD4E90823FBF723
:1046E000A9FE2A463346FBF74CFFD4E90623FBF725
:1046F000A1FE2A463346FBF744FFD4E90423FBF727
:1047000099FE2A463346FBF73CFFD4E90223FBF728
:1047100091FE2A463346FBF734FFD4E90023BDE877
:10472000F041FBF787BE00002DE9FF4D054621F063
:10473000004084B00C46B0F1795F0BDA2846FFF7F1
:104740002BFD042808BF00F071F8284608B0214668
:10475000BDE8F08D2A460B461046FBF712FF0646D1
:104760000F462A462346FBF70CFF804626488A461A
:1047700032463B4605217844FFF780FF8346109878
:10478000029160B3214A224B40465146FBF7F9FEA5
:10479000CDE900015A4640465146029BFBF7F1FE27
:1047A00082468846DDE906014FF0FF32FCF78CF9BE
:1047B00052464346FBF7DFFE32463B46FBF7E1FE3F
:1047C000DDE90623FBF7D7FEDDE90023FBF7D3FE87
:1047D00008B02A462346BDE8F04DFBF7CFBE0B4696
:1047E0005A4630463946FBF7CCFE084A084BFBF7E1
:1047F00021FE42465346FBF7C4FE08B02A46234634
:10480000BDE8F04DFBF716BE26560000495555553C
:104810005555C5BF0122FCF757B9FBF70BBE002267
:10482000134610461146FBF71EBF0000024A002047
:104830001107FCF749B9000001FDFFFF02E008C8BD
:10484000121F08C1002AFAD170477047002001E00A
:1048500001C1121F002AFBD1704700000149086006
:1048600070470000140100202DE9FF5F82B0002195
:10487000DDE90430020DDDF840B0034318D044F602
:104880001050A2F2FF3242431514119801281FD094
:10489000A5EB0B00401C5FEA000A4FF000064E4FEC
:1048A000DFF83891B046504615D5CAF1000413E040
:1048B000119801244AA3012801D16FEA0B01029843
:1048C000119AC0E90031C0E9024206B0BDE8F09F8C
:1048D000CBF10000DFE704460021404A491842EBD3
:1048E0000450CDE9001012E0E00707D032463B4605
:1048F00040464946FBF745FE8046894632463B46E0
:1049000010461946FBF73DFE06460F466410002C84
:10491000EAD1DDE90401DDE90023BAF1000F06DA8E
:10492000FBF72FFE42464B46FBF72BFE05E0FBF75D
:104930009AFE42464B46FBF796FE04460E46002280
:10494000284BFBF77DFF03D84FF0FF30014607E00F
:104950000022254B20463146FBF76CFDFCF7CBF8D7
:10496000102409E0002C0ADB0A220023FBF7C6FF13
:10497000039B30321A55641E50EA0102F2D1641CC6
:10498000039AC4F111031444119A012A03D001229D
:1049900008430DD10AE0084304D000204FF0110B6A
:1049A000119072E7A3EB0B056D1E0DE05B4504DD76
:1049B0004FF0000205F1010504E003DA4FF00002B8
:1049C000A5F10105002AECD002981199C0E9023145
:1049D000C0E9004579E70000000014400000F03F06
:1049E000300000000000F0430000E03F2DE9FF4FE1
:1049F00095B09A46884606460025EEE1252877D1EF
:104A000000242746F94A0121039400E0044316F8E4
:104A1000013F203B01FA03F01042F7D130782A28F9
:104A200011D06FF02F033078A0F13002092A16D888
:104A3000039A44F0020402EB820203EB42021044A8
:104A4000761C0390EFE758F8042B0392002A03DA50
:104A5000504244F40054039044F00204761C307831
:104A60002E2816D116F8010F44F004042A280DD080
:104A70006FF02F023078A0F13003092B09D807EB33
:104A8000870302EB4303C718761CF3E758F8047B4F
:104A9000761C30786C280FD006DC4C2817D068289C
:104AA0000DD06A2814D104E0742810D07A280FD1D0
:104AB0000DE044F400140AE044F4801401E044F4EE
:104AC00040147278824202D104F58014761C761C60
:104AD000307866280BD013DC582877D009DC002802
:104AE00075D04528F6D04628F4D047281AD193E14E
:104AF00018E0632835D0642879D0652812D18BE17D
:104B0000702873D008DC6728F1D069286FD06E2830
:104B10000DD06F2806D1ACE073282CD0752874D046
:104B2000782853D05246179990476D1C54E1C4F32E
:104B30000250022809D003280DD0D8F8001004280C
:104B40000DD00D6008F1040846E1D8F80010EA170E
:104B5000C1E90052F6E7D8F800100D80F2E70D70B9
:104B6000F0E718F8041B8DF8001000208DF8010004
:104B7000EB46012003E058F804BB4FF0FF3061071B
:104B80004FF0000102D40DE009F101018946B9425C
:104B90000FDA8145F8DB1BF809100029F4D108E091
:104BA00009F1010189468142FADB1BF8091000294D
:104BB000F6D103985346A0EB090721463846179AC9
:104BC00000F080FA284400EB090507E044E008E122
:104BD0000DE01BF8010B524617999047B9F10109F6
:104BE000F7D2534621463846179AF2E039E00A21B7
:104BF000C4F302524FF0000B0091022A06D058F87D
:104C0000040BC117032A09D00AE023E008F10700CA
:104C100020F00702F2E80201904605E000B2C11759
:104C2000042A01D140B2C117002906DA0A46002140
:104C3000404261EB02012D2202E0220504D52B2225
:104C40008DF80420012203E0E20701D02022F7E7DB
:104C5000914657E00A2100E010214FF0000B00912F
:104C60000BE010214FF0000B44F0040408270091E2
:104C700003E008204FF0000B0090C4F30252022A18
:104C800005D058F8040B0021032A08D008E008F1E9
:104C9000070020F00702F2E80201904603E080B22C
:104CA000042A00D1C0B24FF0000922072AD5327879
:104CB000702A07D0DDF800C08CF0100C5CEA0B0CF9
:104CC00005D00EE040228DF80420012208E050EAD1
:104CD000010306D030238DF804308DF80520022220
:104CE0009146009B83F0080353EA0B030AD150EA74
:104CF000010201D1620705D530228DF804204FF062
:104D000001097F1E3278582A04D039A20C920CAACD
:104D100002920BE03BA2F9E75B46009AFBF7EEFD3F
:104D20000C9B9B5C029A521E0292137050EA010285
:104D3000F2D1029804A9081A00F1200B600702D5ED
:104D400024F4803400E001275F4502DDA7EB0B006F
:104D500000E0002000EB0B01009003984944401A4A
:104D60000390E00306D453462146179A039800F0B7
:104D7000A9F90544002706E001A85246C05D17992D
:104D800090476D1C7F1C4F45F6DBE0030CD5534666
:104D90002146179A039800F095F9054404E0302065
:104DA0005246179990476D1C0099481E00900029A3
:104DB000F5DC08E00298029952460078491C0291FD
:104DC000179990476D1CBBF10001ABF1010BF1DCB1
:104DD0005BE100F065F90544761C307800287FF42B
:104DE0000DAE19B02846BDE8F08F0000092801007B
:104DF0003031323334353637383961626364656651
:104E00000000000030313233343536373839414212
:104E10004344454600000000600700D4062708F11F
:104E2000070020F00700F0E80223804603F0004C62
:104E30005FEA0C0001D097A009E0200501D596A0FB
:104E400005E0E00701D095A001E0AFF24C0013901F
:104E5000307823F0004365280CD006DC452809D0C3
:104E600046281DD047287FD13BE0662818D0672808
:104E70007AD136E00021112F01DB112000E0781CEF
:104E8000CDE9000104A90CA8FFF7EEFCDDE90D0156
:104E90000C9A4FF0000B07F10109109200914EE0BF
:104EA0004FF000400097CDE9011004A90CA8FFF7CE
:104EB000DBFCDDE90D020C9B0F994FF0000B9146D6
:104EC0001093009211B9791C00EB0109B7EB0900AE
:104ED00003D4C0F1FF3B07F10109A9EB07000190E2
:104EE00042E0012F00DA01270021112F01DD1120FE
:104EF00000E03846CDE9000104A90CA8FFF7B4FC96
:104F0000DDE90D010C9A00914FF0000BB9461092AB
:104F100021070FD4009A4A4503DA914601E0A9F12E
:104F20000109B9F1010F05DD109AA9F10101515CE8
:104F30003029F4D0B84202DA10F1040F03DA01216B
:104F4000CDE9011010E0002803DC8344A9EB000147
:104F500002E0411C494500DD8946A0EB0B00401CE6
:104F600001904FF000400290200705D40198484579
:104F700002DB4FF0FF30019000208DF84B000298CB
:104F80000DF14B07B0F1004F25D002200C902B20E3
:104F90000D90029800280CDA404202902D200D90CE
:104FA00007E00A210298FBF793FC3031029007F8E2
:104FB000011D0C99481E0C900029F2DC0298002873
:104FC000EFD1791E0D980870307800F0200040F085
:104FD000450007F8020D11A8C01BC01D02901398D0
:104FE000007800B1012000EB0901019801EBE071AC
:104FF000029801440398401A401E0390E00306D42F
:1050000053462146179A039800F05CF8054413981C
:10501000007818B15246179990476D1CE00323D5CC
:1050200053462146179A039800F04CF805441BE0BC
:10503000BBF1000F07DB0098584504DD1098179965
:1050400010F80B0001E01799302052469047019864
:105050000BF1010B401E05F10105019004D12E203A
:105060005246179990476D1CB9F10001A9F1010949
:10507000DEDC05E017F8010B5246179990476D1CCE
:105080000299481E02900029F4DC53462146179AE3
:1050900003989EE62D0000002B0000002000000079
:1050A0002DE9F041044600251E461746880404D425
:1050B00005E039462020B0476D1C641EF9D528460E
:1050C000BDE8F0812DE9F041044600251E469046DA
:1050D000C80301D5302700E02027880404D505E067
:1050E00041463846B0476D1C641EF9D52846BDE8D8
:1050F000F08100002DE9FE4F06460F460025684668
:1051000001F0D6F9002442E056F8240057F82410A4
:10511000A0EB010ABAF1000F01DB514601E0CAF130
:1051200000010846FBF70EFB83464FF08F41FBF76B
:1051300043F980465DF824000021FBF7B5FB16D04B
:105140005DF824104046FBF737F982464FF07E5158
:10515000FBF7FAF8814629F0004A0F48416A5046A9
:10516000FBF7ACFB12D20120A04005430EE00A4839
:10517000C1694046FBF798FB05D30748016A4046E2
:10518000FBF79CFB02D20120A0400543641C032CCA
:10519000BADB2846BDE8FE8F988F00082DE9F04D58
:1051A0008D4F21F0004A86B005460C46BA452ADBF1
:1051B000AAEB070028430AD08848824501DC1AD1AF
:1051C000CDB106B02846BDE8F04DFFF723BB844AB9
:1051D000844B2846FBF7D5F907460E46824A834B97
:1051E00028462146FBF7CDF906B03A463346BDE8DE
:1051F000F04DFBF71FB90120FFF730FB06B0BDE80B
:10520000F04DFFF70CBB7A48824542DABAF1795F7C
:105210000BDA2846FEF7C0FF042808BFFFF706FB9D
:10522000284606B02146BDE8F08D2A460B461046BA
:10523000FBF7A7F9834602466E480E460B46062149
:105240007844FFF71BFA5A463346FBF79AF9804633
:1052500069488A465A46334604217844FFF70EFAD5
:105260005A463346FBF78DF900223B46FBF7E2F83E
:1052700002460B4640465146FBF7F5F92A462346BF
:10528000FBF77FF906B02A462346BDE8F04DFBF751
:10529000D1B8284624F0004100223D463B46FBF7AA
:1052A0006DF94FF0FF32FBF70FFC064602465348FC
:1052B0000F460B4606217844FFF7E0F932463B469D
:1052C000FBF75FF9CDE900014D4832463B4604212A
:1052D0007844FFF7D3F932463B46FBF752F90022F8
:1052E0002B46FBF7A7F8834602913046394603F078
:1052F000CBF9804643480D46504517DCDDE90001F7
:105300005A46029BFBF7AFF942462B46FBF739F9A9
:1053100042462B46FBF78EF80122FBF7D5FB304ABD
:10532000304BFBF728F9304A304B4CE04FF0000A85
:1053300052460B464046FBF77DF8CDE90310524636
:105340002B4610461946FBF71CF932463B46FBF745
:1053500015F9DDE90332FBF786F906460F46DDE96C
:1053600000015A46029BFBF77EF983460091012219
:1053700030463946FBF7A8FB194A1A4BFBF7FEF8F3
:1053800006460F46012240462946FBF79DFB5A463A
:10539000009BFBF7F6F832463B46FBF7ECF8064677
:1053A0000F46012250462946FBF78EFB0E4DDFF8D3
:1053B00058802A464346FBF7E1F832463B46FBF766
:1053C000DDF82A464346FBF7D9F8002CD8BF81F018
:1053D000004106B0BDE8F08D0000F03F0000F07F16
:1053E000075C143326A6913C182D4454FB21F93F49
:1053F0000000E03F744900008A490000FE480000B8
:10540000144900003333EF3FFB21E93F2DE9F84F0A
:1054100004460D4621F0004000917349814211DCA1
:105420007249884201DC06D12CB120462946BDE8EC
:10543000F84FFFF7EFB96E48002DCCBF6D496E49AC
:10544000BDE8F88F6D49814211DD6D498142D8BFB9
:105450004FF0FF366DDD20462946FEF79DFE0428FD
:1054600008BFFFF7E3F920462946BDE8F88F6549F4
:10547000654F25F00045814233DD6449814219DDE5
:10548000002632464FF0804320462946FAF7D2FFE5
:1054900080468A46012220462946FBF715FB00225A
:1054A0003B46FBF768F842465346FBF7DCF80446F8
:1054B0000D463EE001260022BA463B4620462946DC
:1054C000FAF7B8FF80460F46002253462046294689
:1054D000FBF751F842463B46FBF7C5F804460D463C
:1054E00027E04B4981421BDDDFF828A1022600227C
:1054F000534620462946FBF744F800223B46FAF77C
:1055000099FF80460F460022534620462946FBF766
:1055100032F842463B46FBF7A6F804460D4608E043
:10552000032622462B4600203B49FBF79CF8044605
:105530000D4622462B4610461946FBF722F88B46AD
:10554000824602460B46FBF71CF8074602463348E4
:1055500088460B4606217844FFF790F852465B4692
:10556000FBF70FF882462E488B463A464346052104
:105570007844FFF783F83A464346FBF702F80246C1
:105580000B46002E504659460CDAFAF753FF2246D6
:105590002B46FAF7F6FF01B022462B46BDE8F04F46
:1055A000FAF7ECBFFAF746FF22462B46FAF7E9FF77
:1055B0001C4A7A4402EBC603D3E90023FAF7DBFF67
:1055C00022462B46FAF7D7FF174A7A4402EBC60366
:1055D000D3E90023FAF7D2FF009A002AB8BF81F07E
:1055E0000041BDE8F88F0000000010440000F07F8B
:1055F000182D4454FB21F93FFB21F9BF0000DC3F8B
:105600000000203E0000F33F0000F03F0000E63FB6
:10561000008003400000F83F0000F0BF1647000084
:10562000D4460000724600003A4600002DE9F04DD5
:105630009446CCF1000423F000464CEA0404594F90
:1056400046EAD4749A46884621F00042BC4206D805
:10565000454240EA050442EAD474BC4204D9BDE89C
:10566000F04D6246FFF7D9B8AAF14055A5F17F6524
:1056700055EA0C040BD0022404EAAA744A4DDFF860
:105680002CE144EAD87452EA000B04D00CE0BDE8E7
:10569000F04DFFF7BBBE002C14BF012CBDE8F08D10
:1056A000022C30D0032C32D056EA0C0B0AD0BE426A
:1056B00020D1BA4209D126F0804622F080423346FA
:1056C000114617E000291ADB25E0DFF8E4B0FB44BF
:1056D000002C04BFDBE90001BDE8F08D012C02BF06
:1056E000DBE9000181F00041BDE8F08D022C0AD019
:1056F000032C0CD0BA4212D1B8F1000F0BDA2A48B1
:105700002C49BDE8F08D28462B49BDE8F08D284690
:105710007146BDE8F08D24482849BDE8F08D921B04
:1057200012153C2AC4BF204F244E10DCBAF1000FE2
:10573000BEBF12F13C0F00273E4608DB6246FAF777
:1057400092FF21F00041FFF761FE07460E4694B13B
:10575000012C08BF86F000460DD0194A194B022CC7
:105760003846314615D0FAF706FF2A46BDE8F04D17
:10577000114BFAF700BF0022134638463146FBF7BB
:10578000D3F904BF0220FFF769F838463146BDE877
:10579000F08DFAF7F0FE2A46BDE8F04D064BFAF719
:1057A000EDBE00000000F07F182D4454FB2109C01D
:1057B000FE450000FB21F9BFFB210940FB21F93F19
:1057C000075C143326A6A13C00B5244B21F000420F
:1057D00087B09A42DCBF0022134629DD204B9A4253
:1057E00008D140B94FF00100FFF738F8FFF717F87C
:1057F00007B000BD03DBFFF70DF807B000BD02AA3C
:10580000FEF7FAFC10F0030104BF0DF1080C9CE850
:105810000F000DD0012001290ED0022914D00DF166
:10582000080C00909CE80F00FEF77EFF07B000BD5B
:10583000FEF7A6FE07B000BD0DF1080C00909CE835
:105840000F00FEF771FF05E00DF1080C9CE80F005A
:10585000FEF796FE07B081F0004100BDFB21E93F55
:105860000000F07F2DE9F0410446E07800F0C0062A
:10587000E07800F03F05607800F0010098B1EF108B
:105880002846E91705EB5171C910A5EBC101491C68
:1058900001F0FF080B48006820B10A484146026841
:1058A0003846904700BF607800F0080030B10548E6
:1058B000406818B1B011034A516888470020BDE81C
:1058C000F0810000E412002038B5044664B12020C5
:1058D0008DF8000028208DF8010030208DF802009E
:1058E00038208DF8030004E0A32204216846FAF76B
:1058F000BAFC6A46042140F69E2002F0B1FA01F09B
:105900009BFE38BD3EB5044602208DF80000CA203B
:105910008DF80100E3208DF8020009208DF80300C6
:105920006A460421682002F09BFAA3208DF800004B
:1059300004F0400048B1C0208DF80100C8208DF867
:105940000200C2208DF8030006E0A3208DF80100BC
:105950008DF802008DF8030004F4C07048B1C42033
:105960008DF80400CC208DF80500C6208DF80600C7
:1059700006E0A3208DF804008DF805008DF80600E0
:10598000A3208DF807008DF808008DF809006A46FD
:105990000A2140F6A72002F063FA04F0030018B1D0
:1059A00020208DF8000002E0D8208DF800006A4623
:1059B000012140F6B62002F053FA04F0200018B19D
:1059C000012000F0ADF802E0002000F0A9F804F496
:1059D000C07008B304F4807060B1B2208DF800008C
:1059E0008B208DF80100B6208DF802009B208DF8E9
:1059F00003000BE0B0208DF8000080208DF801003E
:105A0000B4208DF8020090208DF803006A4604212E
:105A100040F6A22002F024FA04F0010020B3F8209E
:105A20008DF800006A4601214FF40B6002F018FA6D
:105A3000FA21072000F02CFC072000F0F3FB0120E6
:105A400000F013FC642000F0F3FC4FF4FA7000F057
:105A500002FDC821304800F0A3FB282000F0BCFB69
:105A60000A2000F0CCFB08E0D8208DF800006A4640
:105A700001214FF40B6002F0F3F904F0020018B1B9
:105A8000D9208DF8000002E0D8208DF800006A4689
:105A9000012140F23D7002F0E3F904F0040018B176
:105AA000012000F069F802E0002000F065F804F041
:105AB000100018B10120FFF707FF02E00020FFF7F8
:105AC00003FF44F008001549488101F0B5FD0020AE
:105AD0001249887304F0400018B10846807B801D8D
